:020000040800F2
:10000000002800206514000841100008471000086F
:100010004D1000085310000859100008000000009F
:100020000000000000000000000000005F10000859
:100030006B10000800000000771000088310000813
:10004000AD140008AD140008AD140008AD1400088C
:10005000AD140008AD140008AD140008AD1400087C
:10006000AD140008AD140008AD140008AD1400086C
:10007000AD140008AD140008AD140008AD1400085C
:10008000AD140008AD140008AD140008AD1400084C
:10009000AD140008AD140008AD140008AD1400083C
:1000A000AD140008AD140008AD140008AD1400082C
:1000B00091100008AD14000800000000AD14000805
:1000C000AD1400080000000000000000AD1400089E
:1000D00000000000AD140008AD140008000000008E
:1000E000AD140008AD140008AD14000800000000B5
:1000F0000000000000000000000000000000000000
:0C01000000000000000000005FF808F1A3
:10010C0010B5054C237833B9044B13B10448AFF345
:10011C0000800123237010BDBC00002000000000F3
:10012C00DC2A000808B5034B1BB103490348AFF3A5
:10013C00008008BD00000000C0000020DC2A000880
:10014C0080B500AFA64B1B780A3B032B00F23B811A
:10015C0001A252F823F000BF75010008BD01000890
:10016C00730200082703000801F02CF8012000F0AE
:10017C007DFC012000F094FC022000F077FC0220B2
:10018C0000F08EFC002000F071FC0346002B00F008
:10019C001C8100F0B3FF934B1A88934B1A80904B41
:1001AC000B221A704FF4FA71022000F091FE0CE150
:1001BC00022000F07DFE0346002B0CD008218B485A
:1001CC0001F089FC4021894801F085FC4FF4FA715B
:1001DC00022000F07DFE012000F048FC0346002BBD
:1001EC0005D0814B1B8801339AB27F4B1A800120BA
:1001FC0000F056FC0346002B05D07B4B1B88013BC3
:10020C009AB2794B1A80022000F030FC0346002B86
:10021C0005D0754B1B881946002000F043FF724B2C
:10022C001B880B21184600F0F5FC002000F01EFC8A
:10023C000346002B00F0CB80012208216B4801F013
:10024C0032FC01224021694801F02DFC654B5A8893
:10025C00654B1A80624B0C221A704FF4FA71022013
:10026C0000F036FEB3E0022000F022FE0346002B25
:10027C000CD010215D4801F02EFC80215B4801F070
:10028C002AFC4FF4FA71022000F022FE012000F04B
:10029C00EDFB0346002B05D0534B1B8801339AB260
:1002AC00514B1A80012000F0FBFB0346002B05D0BC
:1002BC004D4B1B88013B9AB24B4B1A80022000F02D
:1002CC00D5FB0346002B05D0474B1B881946012054
:1002DC0000F0E8FE444B1B880C21184600F09AFCF9
:1002EC00002000F0C3FB0346002B72D0012210212A
:1002FC003E4801F0D8FB012280213C4801F0D3FBA1
:10030C00384B9A88384B1A80354B0D221A704FF4A3
:10031C00FA71022000F0DCFD5BE0022000F0C8FD69
:10032C000346002B0DD02021304801F0D4FB4FF4B4
:10033C0080712E4801F0CFFB4FF4FA71022000F0CF
:10034C00C7FD012000F092FB0346002B05D0264B85
:10035C001B8801339AB2244B1A80012000F0A0FBB9
:10036C000346002B05D0204B1B88013B9AB21E4B39
:10037C001A80022000F07AFB0346002B05D01A4BA2
:10038C001B881946022000F08DFE174B1B880D218F
:10039C00184600F03FFC002000F068FB0346002BE1
:1003AC0019D001222021114801F07DFB01224FF4CC
:1003BC0080710E4801F077FB094B0A221A700C4B26
:1003CC0000221A7007E000BF06E000BF04E000BF87
:1003DC0002E000BF00E000BF00F034FA00BF80BDB7
:1003EC00AC0000206C000020D8000020000C014064
:1003FC00EA00002080B485B000AF78600023FB6079
:10040C000FE0FB68DB007A68D1180A4AFB68DB0056
:10041C0013440A4692E8030083E80300FB680133A7
:10042C00FB60FB68062BECDD00BF00BF1437BD463C
:10043C0080BC7047F400002080B485B000AF7860B9
:10044C00974A7B6813441B78FB73FB7BDB08DBB29E
:10045C0003F00103DAB2934B1A70FB7B9B08DBB2FF
:10046C0003F00103DAB2904B1A70FB7B5B08DBB232
:10047C0003F00103DAB28D4B1A70FB7B03F001031E
:10048C00DAB28B4B1A70884B1A78894B1B78134352
:10049C00DBB2002B0CBF01230023DBB21A46834BCB
:1004AC001B781343804A1178814A12780A40D2B2E1
:1004BC0013437C4A12781343002B14BF01230023EF
:1004CC00DAB27C4B1A70784B1B78002B0CBF0123D3
:1004DC000023DAB2754B1978754B1B780B43DBB2E2
:1004EC00002B0CBF01230023DBB21343DBB21946F4
:1004FC006E4B1A786E4B1B781340DBB20B43002B00
:10050C0014BF01230023DAB26B4B1A70674B1B78B4
:10051C00002B0CBF01230023DBB21A46644B1B7863
:10052C001343614A12781343002B14BF0123002399
:10053C00DAB2624B1A705C4B1A785D4B1B78134322
:10054C00DBB2002B0CBF01230023DBB21A46564B47
:10055C001B78002B0CBF01230023DBB21946534B35
:10056C001B780B401A43504B1B7819464F4B1B788A
:10057C00002B0CBF01230023DBB20B404C49097844
:10058C000B401A43494B1B781946494B1B78002BDF
:10059C000CBF01230023DBB20B401343414A1278FA
:1005AC001343002B14BF01230023DAB2444B1A70FF
:1005BC003D4B1A783E4B1B781343DBB2002B0CBF20
:1005CC0001230023DBB21A46384B1B781946384BF3
:1005DC001B78002B0CBF01230023DBB20B40134311
:1005EC00002B14BF01230023DAB2364B1A702F4BA9
:1005FC001A782F4B1B781343DBB2002B0CBF012353
:10060C000023DBB21A46284B1B781946274B1B7864
:10061C00002B0CBF01230023DBB20B401A43224BEF
:10062C001B781946224B1B78002B0CBF012300238F
:10063C00DBB20B4013431B4A12781343002B14BF3D
:10064C0001230023DAB2204B1A70174B1B78002BB6
:10065C000CBF01230023DBB21A46144B1B781A4043
:10066C00114B1B781946114B1B78002B0CBF012327
:10067C000023DBB20B4013430A4A12781A430A4B8D
:10068C001B7819460A4B1B78002B0CBF0123002347
:10069C00DBB20B401343002B14BF0123002315E0E6
:1006AC00000000202E01002030010020310100202C
:1006BC00F0000020340100202C0100203201002029
:1006CC0033010020350100202D010020DAB2034B4C
:1006DC001A7000BF1437BD4680BC70472F01002034
:1006EC0080B582B000AF78607B68002B02DB7B6842
:1006FC00092B1BDD3B4B00221A703A4B1A783A4BF4
:10070C001A70394B1A78394B1A70384B1A78384B97
:10071C001A70374B1A78374B1A70364B1A78364B8F
:10072C001A70354B1A78354B1A7002E07868FFF75F
:10073C0083FE334B1868324B9988304B1B7883F00F
:10074C000103DBB21A4601F0AEF92D4B98682C4B25
:10075C009989294B1B7883F00103DBB21A4601F00F
:10076C00A2F9274B1869264B998A224B1B7883F0E8
:10077C000103DBB21A4601F096F9214B9869204B24
:10078C00998B1B4B1B7883F00103DBB21A4601F0EB
:10079C008AF91B4B186A1A4B998C144B1B7883F0F3
:1007AC000103DBB21A4601F07EF9154B986A144B23
:1007BC00998D0D4B1B7883F00103DBB21A4601F0C7
:1007CC0072F90F4B186B0E4B998E064B1B7883F0FE
:1007DC000103DBB21A4601F066F900BF0837BD46CB
:1007EC0080BD00BF2F0100202D010020350100200D
:1007FC0033010020320100202C01002034010020A4
:10080C00F400002080B582B000AF0023FB710FE034
:10081C00FB790B4A52F83300FB79094ADB0013448D
:10082C009B880122194601F03EF9FB790133FB71DB
:10083C00FB79032BECD900BF00BF0837BD4680BD48
:10084C004800002080B500AF664B1B78042B00F2EB
:10085C00BC8001A252F823F099080008E5080008B2
:10086C002F0900087909000879080008FFF7CAFF6A
:10087C004FF0FF30FFF734FF5A4B00221A705A4BDF
:10088C001B881946012000F023FBA8E0574B9B69FD
:10089C00564A918B0122184601F005F9544B1B88DE
:1008AC001846FFF71DFF514B1B68504A91880022D8
:1008BC00184601F0F8F8012000F0FAFA0346002B74
:1008CC0000F08680474B01221A70474B1B88194653
:1008DC00012000F0FDFA7BE0444B1B68434A9188F1
:1008EC000122184601F0DFF8414B5B881846FFF7F0
:1008FC00F7FE3E4B9B683D4A91890022184601F059
:10090C00D2F8012000F0D4FA0346002B62D0354B0C
:10091C0002221A70344B1B881946012000F0D8FAB9
:10092C0058E0324B9B68314A91890122184601F0FC
:10093C00BAF82F4B9B881846FFF7D2FE2B4B1B693E
:10094C002A4A918A0022184601F0ADF8012000F0E5
:10095C00AFFA0346002B3FD0224B03221A70224BD6
:10096C001B881946012000F0B3FA35E01F4B1B69B8
:10097C001E4A918A0122184601F095F81C4BDB881F
:10098C001846FFF7ADFE194B9B69184A918B002254
:10099C00184601F088F8012000F08AFA0346002B73
:1009AC001CD0104B1B780133DAB20E4B1A700D4B66
:1009BC001B78032B02D90B4B00221A700A4B1B8895
:1009CC001946012000F084FA08E0FFF71BFF06E04F
:1009DC0000BF04E000BF02E000BF00E000BF00BFAA
:1009EC0080BD00BF680000200C00002048000020E3
:1009FC005801002080B582B000AF78607B68022B74
:100A0C001FD07B68022B27DC7B68002B03D07B6814
:100A1C00012B0BD020E00121124801F02DF80346E8
:100A2C0099B2114A7B6822F8331016E002210D4866
:100A3C0001F022F8034699B20B4A7B6822F8331076
:100A4C000BE00421074801F017F8034699B2064A57
:100A5C007B6822F8331000E000BF00BF0837BD46AA
:100A6C0080BD00BF000C01404001002080B483B069
:100A7C0000AF7860094A7B6832F81330012B06D13D
:100A8C00064A7B68002122F81310012300E00023A2
:100A9C0018460C37BD4680BC704700BFE4000020F0
:100AAC0080B483B000AF7860094A7B6832F81330A9
:100ABC00012B06D1064A7B68002122F81310012372
:100ACC0000E0002318460C37BD4680BC704700BFC1
:100ADC00DC00002080B582B000AF00237B6017E003
:100AEC00484A7B68DB0013445988464A7B68DB0024
:100AFC0013440A469A80434A7B6832F83310414AC1
:100B0C007B68DB0013440A465A807B6801337B60A8
:100B1C007B68022BE4DD00233B606BE03868FFF759
:100B2C0069FF384A3B68DB0013445A8835493B68F7
:100B3C0031F833309A425AD1324A3B68DB001344C5
:100B4C009A8830493B68DB000B445B889A424ED153
:100B5C002C4A3B68DB0013449A882A493B68DB002B
:100B6C000B44DB889A421CD0264A3B68DB001344BA
:100B7C009988244A3B68DB0013440A46DA80214AF0
:100B8C003B68DB001344DB88002B30D11E4A3B68EA
:100B9C00322122F813101D4A3B68012122F8131050
:100BAC0025E0194A3B6832F81330013B99B2164ADA
:100BBC003B6822F81310144A3B6832F81330002BB0
:100BCC0015D1114A3B68322122F813100D4A3B68AB
:100BDC00DB001344DB88002B09D10C4A3B68002155
:100BEC0022F813100A4A3B68012122F813103B68C3
:100BFC0001333B603B68022B90DD00BF00BF083720
:100C0C00BD4680BD4001002038010020E4000020DA
:100C1C00DC00002080B487B000AF03460A46FB809E
:100C2C001346BB80FB881F4AA2FB0323DB089BB245
:100C3C00BB81BB891A465203D21A9200D31A5B00AD
:100C4C009AB2FB8813449BB2FB81BB88154AA2FB6A
:100C5C000323DB089BB23B823B8A1A465203D21A0F
:100C6C009200D31A5B009AB2BB8813449BB27B826E
:100C7C000023FB750DE0FB7DFA7D5B0007F118018D
:100C8C000B4433F80C1C084B23F81210FB7D01337A
:100C9C00FB75FB7D032BEED900BF00BF1C37BD4697
:100CAC0080BC7047CDCCCCCC5801002080B500AFB7
:100CBC0000F0F8FB00F00CF800F092F800F044F8AB
:100CCC00024801F04DFBFFF73BFAFCE76001002006
:100CDC0080B590B000AF07F1180328220021184608
:100CEC0001F0EEFE3B1D00221A605A609A60DA6039
:100CFC001A610223BB610123BB621023FB62002338
:100D0C007B6307F11803184600F0FEFE0346002B28
:100D1C0001D000F0C7F80F237B600023BB600023D9
:100D2C00FB6000233B6100237B613B1D00211846C7
:100D3C0001F06AF90346002B01D000F0B3F800BFB4
:100D4C004037BD4680BD000080B586B000AF07F1CE
:100D5C00080300221A605A609A60DA603B4600224F
:100D6C001A605A601D4B4FF080421A601B4B41F6C3
:100D7C003F725A60194B00229A60184B0922DA60B4
:100D8C00164B00221A61154B00229A61134801F090
:100D9C0097FA0346002B01D000F084F84FF48053EF
:100DAC00BB6007F1080319460C4801F015FC03461B
:100DBC00002B01D000F076F800233B6000237B6011
:100DCC003B461946054801F0EDFD0346002B01D0CA
:100DDC0000F068F800BF1837BD4680BD60010020E8
:100DEC0080B586B000AF07F1080300221A605A6084
:100DFC009A60DA60284B9B69274A43F0040393619D
:100E0C00254B9B6903F004037B607B68224B9B6939
:100E1C00214A43F0080393611F4B9B6903F00803BD
:100E2C003B603B6800224DF6FE611C4800F03BFE27
:100E3C0000224FF4FC711A4800F035FE4DF6FE63AB
:100E4C00BB600123FB6000233B6102237B6107F144
:100E5C0008031946114800F095FC0723BB600023DA
:100E6C00FB6000233B6107F1080319460C4800F0B6
:100E7C0089FC4FF4FC73BB600123FB6000233B61D6
:100E8C0002237B6107F108031946054800F07AFC40
:100E9C0000BF1837BD4680BD00100240000801405D
:100EAC00000C014080B400AF72B600BFFEE700003A
:100EBC0080B483B000AF0346FB71FB79034AD35C6B
:100ECC0018460C37BD4680BC704700BFA8010020F7
:100EDC0080B483B000AF03460A46FB711346BB8057
:100EEC00BB88094AA2FB0323DB089AB2FB791146A3
:100EFC00064A42F82310FB79054A0021D15400BF61
:100F0C000C37BD4680BC7047CDCCCCCCB401002096
:100F1C00A801002080B483B000AF0023FB7114E063
:100F2C00FB790E4A52F82320013A0C4941F8232050
:100F3C00FB790A4A52F82330002B03DCFB79084A70
:100F4C000121D154FB790133FB71FB79092BE7D9D2
:100F5C0000BF00BF0C37BD4680BC7047B4010020F9
:100F6C00A801002080B582B000AF78607B681B6858
:100F7C00B3F1804F03D1FFF7CDFFFFF7ABFD00BFFF
:100F8C000837BD4680BD000080B485B000AF154B5E
:100F9C009B69144A43F001039361124B9B6903F064
:100FAC000103BB60BB680F4BDB690E4A43F08053F7
:100FBC00D3610C4BDB6903F080537B607B680A4B7D
:100FCC005B68FB60FB6823F0E063FB60FB6843F04D
:100FDC008063FB60044AFB68536000BF1437BD4656
:100FEC0080BC7047001002400000014080B584B006
:100FFC0000AF78607B681B68B3F1804F13D10C4B4A
:10100C00DB690B4A43F00103D361094BDB6903F045
:10101C000103FB60FB68002200211C2000F07BFB1D
:10102C001C2000F094FB00BF1037BD4680BD00BFF4
:10103C000010024080B400AFFEE780B400AFFEE7C2
:10104C0080B400AFFEE780B400AFFEE780B400AF21
:10105C00FEE780B400AF00BFBD4680BC704780B4D3
:10106C0000AF00BFBD4680BC704780B400AF00BF6E
:10107C00BD4680BC704780B500AF00F059FA00BF88
:10108C0080BD000080B500AF024801F0B5F900BF8B
:10109C0080BD00BF6001002080B400AF00BFBD4622
:1010AC0080BC704780B483B000AF03460A46FB7126
:1010BC001346BB80BB88632B05D9FB790D4A32F8EC
:1010CC001330BB8008E0FB790A4A32F81330BA8837
:1010DC009A4201D26323BB80FB79022B04D8FB79A3
:1010EC000549BA8821F8132000BF0C37BD4680BCD7
:1010FC00704700BF740000206C00002080B582B0E7
:10110C0000AF0023FB711CE0FB79124A52F833004C
:10111C00FB79104ADB0013449B880122194600F02E
:10112C00C2FCFB790C4A52F83300FB790A4ADB000B
:10113C0013449B880122194600F0B5FCFB7901335E
:10114C00FB71FB79022BDFD900BF00BF0837BD460E
:10115C0080BD00BF7C0000209400002080B584B0CE
:10116C0000AF78600B46FB700023FB7314E0FA7B36
:10117C00FB789A420DD0FB7BDB007A68134418682D
:10118C00FB7BDB007A6813449B880122194600F034
:10119C008AFCFB7B0133FB73FB7B022BE7D9FB78CF
:1011AC00DB007A6813441868FB78DB007A68134418
:1011BC009B880022194600F076FC00BF1037BD4614
:1011CC0080BD000080B500AF9C4B1B78052B00F256
:1011DC00298101A252F823F0FD11000831140008F6
:1011EC004D120008C712000841130008B91300087B
:1011FC0002219348FFF7B2FF00219248FFF7AEFFA0
:10120C008E4B02221A709048FFF7F4F88F4B9B8894
:10121C00013B9AB28E4B1A808C4B1B88013B9AB2C5
:10122C008C4B1A808A4B1B888A4A128811461846A6
:10123C00FFF7F0FC4FF47A710020FFF749FEFAE05B
:10124C0002217F48FFF78AFF00217E48FFF786FFC7
:10125C000020FFF72DFE0346002B00F0E5807C4BB1
:10126C001B88002B0CD07A4B1B88013B9AB2784B15
:10127C001A80784B1B88013B9AB2764B1A800EE091
:10128C00724B5B88013B9AB2714B1A80714B1B8875
:10129C00013B9AB26F4B1A80684B03221A706C4B4D
:1012AC001B886C4A128811461846FFF7B3FC4FF4A2
:1012BC007A710020FFF70CFEB6E001216048FFF7C1
:1012CC004DFF00215F48FFF749FF0020FFF7F0FDBD
:1012DC000346002B00F0AA805D4B1B88002B0CD022
:1012EC005B4B1B88013B9AB2594B1A80594B1B889C
:1012FC00013B9AB2574B1A800EE0544B1B88013BB2
:10130C009AB2534B1A80514B9B88013B9AB2514B6A
:10131C001A804A4B04221A704D4B1B884D4A128876
:10132C0011461846FFF776FC4FF47A710020FFF750
:10133C00CFFD7BE000214248FFF710FF022141481E
:10134C00FFF70CFF0020FFF7B3FD0346002B6FD017
:10135C00404B1B88002B0CD03D4B1B88013B9AB299
:10136C003B4B1A803B4B1B88013B9AB2394B1A8082
:10137C000EE0374B1B88013B9AB2354B1A80334B2E
:10138C005B88013B9AB2334B1A802C4B05221A70A6
:10139C002F4B1B882F4A128811461846FFF73AFC30
:1013AC004FF47A710020FFF793FD41E000212448AF
:1013BC00FFF7D4FE01212348FFF7D0FE0020FFF7F2
:1013CC0077FD0346002B35D0224B1B88002B0CD00D
:1013DC001F4B1B88013B9AB21D4B1A801D4B1B885F
:1013EC00013B9AB21B4B1A800EE0184B9B88013BB9
:1013FC009AB2174B1A80154B1B88013B9AB2154BAE
:10140C001A800E4B02221A70114B1B88114A12883B
:10141C0011461846FFF7FEFB4FF47A710020FFF7D8
:10142C0057FD07E000BF06E000BF04E000BF02E08C
:10143C0000BF00E000BF00BF80BD00BFEA0000207D
:10144C007C00002094000020100000206C00002084
:10145C00EC000020EE000020FFF71EFE0B480C49AC
:10146C000C4A002302E0D458C4500433C4188C42F4
:10147C00F9D3094A094C002301E013600432A2425B
:10148C00FBD301F0F9FAFFF711FC704700000020C4
:10149C00BC000020202B0008BC000020E001002034
:1014AC00FEE7000080B500AF084B1B68074A43F00D
:1014BC0010031360032000F023F90F2000F008F84C
:1014CC00FFF762FD0023184680BD00BF00200240DC
:1014DC0080B582B000AF7860124B1A68124B1B7843
:1014EC0019464FF47A73B3FBF1F3B2FBF3F31846DE
:1014FC0000F03BF90346002B01D001230EE07B6882
:10150C000F2B0AD8002279684FF0FF3000F003F956
:10151C00064A7B681360002300E001231846083755
:10152C00BD4680BDB0000020B8000020B4000020F3
:10153C0080B400AF054B1B781A46054B1B6813444F
:10154C00034A136000BFBD4680BC7047B800002042
:10155C00DC01002080B400AF024B1B681846BD466E
:10156C0080BC7047DC01002080B485B000AF78608F
:10157C007B6803F00703FB600C4BDB68BB60BA684D
:10158C004FF6FF031340BB60FB681A02BB681343A2
:10159C0043F0BF6343F40033BB60044ABB68D360C1
:1015AC0000BF1437BD4680BC704700BF00ED00E0A3
:1015BC0080B400AF044BDB681B0A03F0070318462A
:1015CC00BD4680BC704700BF00ED00E080B483B026
:1015DC0000AF0346FB7197F90730002B0BDBFB794F
:1015EC0003F01F02064997F907305B09012000FA46
:1015FC0002F241F8232000BF0C37BD4680BC704777
:10160C0000E100E080B483B000AF03463960FB71A9
:10161C0097F90730002B0ADB3B68DAB20C4997F9D3
:10162C0007301201D2B20B4483F800230AE03B6866
:10163C00DAB20849FB7903F00F03043B1201D2B272
:10164C000B441A7600BF0C37BD4680BC704700BFF8
:10165C0000E100E000ED00E080B489B000AFF8607C
:10166C00B9607A60FB6803F00703FB61FB69C3F1A7
:10167C000703042B28BF0423BB61FB690433062B2F
:10168C0002D9FB69033B00E000237B614FF0FF3282
:10169C00BB6902FA03F3DA43BB681A407B699A40D0
:1016AC004FF0FF317B6901FA03F3D9437B680B40A0
:1016BC00134318462437BD4680BC704780B582B0B2
:1016CC0000AF78607B68013BB3F1807F01D30123CD
:1016DC000FE00A4A7B68013B53600F214FF0FF304B
:1016EC00FFF790FF054B00229A60044B07221A600B
:1016FC00002318460837BD4680BD00BF10E000E04F
:10170C0080B582B000AF78607868FFF72DFF00BF1E
:10171C000837BD4680BD80B586B000AF0346B960C2
:10172C007A60FB7300237B61FFF742FF78617A6874
:10173C00B9687869FFF790FF024697F90F301146A8
:10174C001846FFF75FFF00BF1837BD4680BD80B558
:10175C0082B000AF0346FB7197F907301846FFF7CC
:10176C0035FF00BF0837BD4680BD80B582B000AFE5
:10177C0078607868FFF7A2FF034618460837BD4625
:10178C0080BD000080B48BB000AF7860396000235E
:10179C007B6200233B6248E101227B6A02FA03F37D
:1017AC00FB613B681B68FA691340BB61BA69FB6952
:1017BC009A4240F037813B685B68A34A93425ED003
:1017CC00A14A934275D8A14A934258D09F4A93425A
:1017DC006FD89F4A934252D09D4A934269D89D4AF2
:1017EC0093424CD09B4A934263D89B4A934246D037
:1017FC00994A93425DD8122B2AD8122B59D801A2A0
:10180C0052F823F08B1800086518000877180008A8
:10181C00B9180008BF180008BF180008BF18000846
:10182C00BF180008BF180008BF180008BF18000830
:10183C00BF180008BF180008BF180008BF18000820
:10184C00BF180008BF1800086D18000881180008A0
:10185C00824A934213D02CE03B68DB683B6229E060
:10186C003B68DB6804333B6224E03B68DB6808338D
:10187C003B621FE03B68DB680C333B621AE03B6861
:10188C009B68002B02D104233B6213E03B689B68EE
:10189C00012B05D108233B627B68FA691A6109E0C8
:1018AC0008233B627B68FA695A6103E000233B62C0
:1018BC0000E000BFBB69FF2B01D87B6801E07B68AF
:1018CC0004337B61BB69FF2B02D87B6A9B0002E06F
:1018DC007B6A083B9B003B617B691A680F213B6963
:1018EC0001FA03F3DB431A40396A3B6901FA03F34B
:1018FC001A437B691A603B685B6803F08053002BCA
:10190C0000F09080564B9B69554A43F0010393615C
:10191C00534B9B6903F00103BB60BB68514A7B6A64
:10192C009B08023352F82330FB607B6A03F00303FD
:10193C009B000F2202FA03F3DB43FA681340FB60AF
:10194C007B68494A93420DD07B68484A934207D042
:10195C007B68474A934201D1022304E0032302E04F
:10196C00012300E000237A6A02F003029200934004
:10197C00FA681343FB603B497B6A9B080233FA68A5
:10198C0041F823203B685B6803F48013002B06D0DE
:10199C00384B9A683749BB6913438B6006E0354B6B
:1019AC009A68BB69DB43334913408B603B685B68C7
:1019BC0003F40013002B06D02E4BDA682D49BB69BB
:1019CC001343CB6006E02B4BDA68BB69DB43294938
:1019DC001340CB603B685B6803F40033002B06D0EC
:1019EC00244B5A682349BB6913434B6006E0214BD7
:1019FC005A68BB69DB431F4913404B603B685B680B
:101A0C0003F48033002B06D01A4B1A681949BB69B2
:101A1C0013430B6006E0174B1A68BB69DB4315498F
:101A2C0013400B607B6A01337B623B681A687B6AEC
:101A3C0022FA03F3002B7FF4AFAE00BF00BF2C37AC
:101A4C00BD4680BC704700BF000032100000311052
:101A5C0000002210000021100000121000001110D4
:101A6C00001002400000014000080140000C014041
:101A7C00001001400004014080B485B000AF7860D4
:101A8C000B467B807B689A687B881340002B02D0C6
:101A9C000123FB7301E00023FB73FB7B1846143717
:101AAC00BD4680BC704780B483B000AF78600B46F5
:101ABC007B8013467B707B78002B03D07A887B6805
:101ACC001A6103E07B881A047B681A6100BF0C372B
:101ADC00BD4680BC704780B485B000AF78600B46C3
:101AEC007B807B68DB68FB607A88FB6813401A0498
:101AFC00FB68D9437B880B401A437B681A6100BF93
:101B0C001437BD4680BC704780B586B000AF786096
:101B1C007B68002B01D101236CE27B681B6803F00E
:101B2C000103002B00F08780924B5B6803F00C03E1
:101B3C00042B0CD08F4B5B6803F00C03082B12D1D9
:101B4C008C4B5B6803F48033B3F5803F0BD1894B2E
:101B5C001B6803F40033002B6CD07B685B68002B94
:101B6C0068D1012346E27B685B68B3F5803F06D100
:101B7C00804B1B687F4A43F4803313602EE07B68F4
:101B8C005B68002B0CD17B4B1B687A4A23F48033A7
:101B9C001360784B1B68774A23F4802313601DE095
:101BAC007B685B68B3F5A02F0CD1724B1B68714A34
:101BBC0043F4802313606F4B1B686E4A43F48033ED
:101BCC0013600BE06B4B1B686A4A23F48033136081
:101BDC00684B1B68674A23F4802313607B685B683F
:101BEC00002B13D0FFF7B6FC386108E0FFF7B2FC0E
:101BFC0002463B69D31A642B01D90323FAE15D4BEE
:101C0C001B6803F40033002BF0D014E0FFF7A2FCA8
:101C1C00386108E0FFF79EFC02463B69D31A642B3F
:101C2C0001D90323E6E1534B1B6803F40033002B6B
:101C3C00F0D100E000BF7B681B6803F00203002BAF
:101C4C0063D04C4B5B6803F00C03002B0BD0494B5F
:101C5C005B6803F00C03082B1CD1464B5B6803F448
:101C6C008033002B16D1434B1B6803F00203002B6F
:101C7C0005D07B681B69012B01D00123BAE13D4BD8
:101C8C001B6823F0F8027B685B69DB00394913435E
:101C9C000B603AE07B681B69002B20D0364B01228D
:101CAC001A60FFF757FC386108E0FFF753FC024657
:101CBC003B69D31A022B01D903239BE12D4B1B68E3
:101CCC0003F00203002BF0D02A4B1B6823F0F80220
:101CDC007B685B69DB00274913430B6015E0264BDF
:101CEC0000221A60FFF736FC386108E0FFF732FC7F
:101CFC0002463B69D31A022B01D903237AE11D4B0F
:101D0C001B6803F00203002BF0D17B681B6803F007
:101D1C000803002B3AD07B689B69002B19D0174B1A
:101D2C0001221A60FFF716FC386108E0FFF712FC7D
:101D3C0002463B69D31A022B01D903235AE10D4BFE
:101D4C005B6A03F00203002BF0D0012000F09AFA3A
:101D5C001CE00A4B00221A60FFF7FCFB38610FE015
:101D6C00FFF7F8FB02463B69D31A022B08D9032371
:101D7C0040E100BF00100240000042428004424299
:101D8C009E4B5B6A03F00203002BE9D17B681B6856
:101D9C0003F00403002B00F0A6800023FB75974B87
:101DAC00DB6903F08053002B0DD1944BDB69934A14
:101DBC0043F08053D361914BDB6903F08053BB60DC
:101DCC00BB680123FB758E4B1B6803F48073002BDF
:101DDC0018D18B4B1B688A4A43F480731360FFF74E
:101DEC00B9FB386108E0FFF7B5FB02463B69D31A33
:101DFC00642B01D90323FDE0814B1B6803F4807332
:101E0C00002BF0D07B68DB68012B06D17B4B1B6A67
:101E1C007A4A43F0010313622DE07B68DB68002BE8
:101E2C000CD1764B1B6A754A23F001031362734B7A
:101E3C001B6A724A23F0040313621CE07B68DB68A4
:101E4C00052B0CD16D4B1B6A6C4A43F004031362D7
:101E5C006A4B1B6A694A43F0010313620BE0674B40
:101E6C001B6A664A23F001031362644B1B6A634AC4
:101E7C0023F0040313627B68DB68002B15D0FFF79B
:101E8C0069FB38610AE0FFF765FB02463B69D31A30
:101E9C0041F28832934201D90323ABE0574B1B6AC2
:101EAC0003F00203002BEED014E0FFF753FB386174
:101EBC000AE0FFF74FFB02463B69D31A41F2883226
:101ECC00934201D9032395E04C4B1B6A03F00203A8
:101EDC00002BEED1FB7D012B05D1484BDB69474A2A
:101EEC0023F08053D3617B68DB69002B00F0818089
:101EFC00424B5B6803F00C03082B61D07B68DB69F9
:101F0C00022B46D13F4B00221A60FFF723FB3861AE
:101F1C0008E0FFF71FFB02463B69D31A022B01D9DD
:101F2C00032367E0354B1B6803F00073002BF0D1E3
:101F3C007B681B6AB3F5803F08D1304B5B6823F498
:101F4C0000327B689B682D4913434B602B4B5B68BD
:101F5C0023F474127B68196A7B685B6A0B4327490C
:101F6C0013434B60274B01221A60FFF7F3FA3861D9
:101F7C0008E0FFF7EFFA02463B69D31A022B01D9AE
:101F8C00032337E01D4B1B6803F00073002BF0D0CC
:101F9C002FE01C4B00221A60FFF7DCFA386108E0D6
:101FAC00FFF7D8FA02463B69D31A022B01D9032357
:101FBC0020E0124B1B6803F00073002BF0D118E0EB
:101FCC007B68DB69012B01D1012313E00B4B5B68B0
:101FDC00FB60FB6803F480327B681B6A9A4206D173
:101FEC00FB6803F470127B685B6A9A4201D0012390
:101FFC0000E0002318461837BD4680BD0010024093
:10200C00007000406000424280B584B000AF786040
:10201C0039607B68002B01D10123D0E06A4B1B682F
:10202C0003F007033A689A4210D9674B1B6823F0F8
:10203C00070265493B6813430B60634B1B6803F055
:10204C0007033A689A4201D00123B8E07B681B6809
:10205C0003F00203002B20D07B681B6803F0040301
:10206C00002B05D0594B5B68584A43F4E06353602E
:10207C007B681B6803F00803002B05D0534B5B688F
:10208C00524A43F460535360504B5B6823F0F002A8
:10209C007B689B684D4913434B607B681B6803F05E
:1020AC000103002B40D07B685B68012B07D1474BA9
:1020BC001B6803F40033002B15D101237FE07B68F0
:1020CC005B68022B07D1414B1B6803F00073002B9C
:1020DC0009D1012373E03D4B1B6803F00203002B75
:1020EC0001D101236BE0394B5B6823F003027B6861
:1020FC005B68364913434B60FFF72CFAF8600AE033
:10210C00FFF728FA0246FB68D31A41F28832934251
:10211C0001D9032353E02D4B5B6803F00C027B6861
:10212C005B689B009A42EBD1274B1B6803F00703BB
:10213C003A689A4210D2244B1B6823F007022249BA
:10214C003B6813430B60204B1B6803F007033A6892
:10215C009A4201D0012332E07B681B6803F0040330
:10216C00002B08D0194B5B6823F4E0627B68DB68BA
:10217C00164913434B607B681B6803F00803002B64
:10218C0009D0124B5B6823F460527B681B69DB003F
:10219C000E4913434B6000F021F802460B4B5B6871
:1021AC001B0903F00F030A49CB5C22FA03F3094A1B
:1021BC001360094B1B681846FFF78AF90023184671
:1021CC001037BD4680BD00BF002002400010024009
:1021DC00F42A0008B0000020B400002080B487B0BE
:1021EC0000AF0023FB600023BB6000237B61002356
:1021FC007B6000233B611E4B5B68FB60FB6803F05C
:10220C000C03042B02D0082B03D027E0194B3B61A5
:10221C0027E0FB689B0C03F00F03174AD35C7B6031
:10222C00FB6803F48033002B10D0114B5B685B0C04
:10223C0003F00103114AD35CBB607B680D4A02FBBF
:10224C0003F2BB68B2FBF3F37B6104E07B680C4ADE
:10225C0002FB03F37B617B693B6102E0054B3B6155
:10226C0000BF3B6918461C37BD4680BC704700BF99
:10227C000010024000127A00042B0008142B0008F6
:10228C0000093D0080B485B000AF78600A4B1B6834
:10229C000A4AA2FB03235B0A7A6802FB03F3FB6086
:1022AC0000BFFB685A1EFA60002BF9D100BF00BFBB
:1022BC001437BD4680BC7047B0000020D34D62106F
:1022CC0080B582B000AF78607B68002B01D1012310
:1022DC0041E07B6893F83D30DBB2002B06D17B6884
:1022EC00002283F83C207868FEF780FE7B6802228F
:1022FC0083F83D207B681A687B68043319461046C6
:10230C0000F056FA7B68012283F846207B68012294
:10231C0083F83E207B68012283F83F207B680122F2
:10232C0083F840207B68012283F841207B680122DE
:10233C0083F842207B68012283F843207B680122CA
:10234C0083F844207B68012283F845207B680122B6
:10235C0083F83D20002318460837BD4680BD000099
:10236C0080B485B000AF78607B6893F83D30DBB209
:10237C00012B01D0012335E07B68022283F83D203C
:10238C007B681B68DA687B681B6842F00102DA60C4
:10239C007B681B68164A934209D07B681B68B3F1B3
:1023AC00804F04D07B681B68124A934211D17B6822
:1023BC001B689B6803F00703FB60FB68062B10D0BF
:1023CC007B681B681A687B681B6842F001021A6004
:1023DC0007E07B681B681A687B681B6842F0010287
:1023EC001A60002318461437BD4680BC704700BFE6
:1023FC00002C01400004004080B584B000AF786030
:10240C007B681B68DB68FB607B681B681B69BB60B7
:10241C00BB6803F00203002B20D0FB6803F002031F
:10242C00002B1BD07B681B686FF002021A617B6863
:10243C0001221A777B681B689B6903F00303002B4E
:10244C0003D0786800F098F905E0786800F08BF913
:10245C00786800F09AF97B6800221A77BB6803F061
:10246C000403002B20D0FB6803F00403002B1BD0CB
:10247C007B681B686FF004021A617B6802221A7772
:10248C007B681B689B6903F44073002B03D078684E
:10249C0000F072F905E0786800F065F9786800F0F2
:1024AC0074F97B6800221A77BB6803F00803002BD1
:1024BC0020D0FB6803F00803002B1BD07B681B6843
:1024CC006FF008021A617B6804221A777B681B681C
:1024DC00DB6903F00303002B03D0786800F04CF9A0
:1024EC0005E0786800F03FF9786800F04EF97B68F9
:1024FC0000221A77BB6803F01003002B20D0FB6876
:10250C0003F01003002B1BD07B681B686FF01002CC
:10251C001A617B6808221A777B681B68DB6903F4F5
:10252C004073002B03D0786800F026F905E078683A
:10253C0000F019F9786800F028F97B6800221A7706
:10254C00BB6803F00103002B0CD0FB6803F0010304
:10255C00002B07D07B681B686FF001021A6178684A
:10256C00FEF700FDBB6803F08003002B0CD0FB686A
:10257C0003F08003002B07D07B681B686FF0800290
:10258C001A61786800F06FFABB6803F04003002B07
:10259C000CD0FB6803F04003002B07D07B681B6852
:1025AC006FF040021A61786800F0F8F8BB6803F02D
:1025BC002003002B0CD0FB6803F02003002B07D06A
:1025CC007B681B686FF020021A61786800F042FA91
:1025DC0000BF1037BD4680BD80B584B000AF7860B9
:1025EC0039600023FB737B6893F83C30012B01D1DD
:1025FC000223B4E07B68012283F83C207B68022232
:10260C0083F83D207B681B689B68BB60BB6823F02C
:10261C007703BB60BB6823F47F43BB607B681B689C
:10262C00BA689A603B681B68B3F5005F3ED0B3F59F
:10263C00005F00F28780B3F5805F00F08680B3F511
:10264C00805F7FD8702B1AD0702B7BD8602B50D02A
:10265C00602B77D8502B3CD0502B73D8402B58D0B4
:10266C00402B6FD8302B64D0302B6BD8202B60D004
:10267C00202B67D8002B5CD0102B5AD062E07B68E3
:10268C0018683B6899683B685A683B68DB6800F0DF
:10269C006AF97B681B689B68BB60BB6843F0770377
:1026AC00BB607B681B68BA689A604FE07B681868EF
:1026BC003B6899683B685A683B68DB6800F053F9E3
:1026CC007B681B689A687B681B6842F480429A603E
:1026DC003CE07B6818683B6859683B68DB681A46C5
:1026EC0000F0CAF87B681B685021184600F021F9ED
:1026FC002CE07B6818683B6859683B68DB681A46B5
:10270C0000F0E8F87B681B686021184600F011F9AE
:10271C001CE07B6818683B6859683B68DB681A46A4
:10272C0000F0AAF87B681B684021184600F001F9FC
:10273C000CE07B681A683B681B681946104600F071
:10274C00F8F803E00123FB7300E000BF7B68012273
:10275C0083F83D207B68002283F83C20FB7B1846E5
:10276C001037BD4680BD80B483B000AF786000BF29
:10277C000C37BD4680BC704780B483B000AF786026
:10278C0000BF0C37BD4680BC704780B483B000AF2F
:10279C00786000BF0C37BD4680BC704780B483B0F6
:1027AC0000AF786000BF0C37BD4680BC704700009E
:1027BC0080B485B000AF786039607B681B68FB60C3
:1027CC007B682B4A934207D07B68B3F1804F03D0D0
:1027DC007B68284A934208D1FB6823F07003FB60A6
:1027EC003B685B68FA681343FB607B68204A934242
:1027FC0007D07B68B3F1804F03D07B681D4A9342AE
:10280C0008D1FB6823F44073FB603B68DB68FA6813
:10281C001343FB60FB6823F080023B685B69134346
:10282C00FB607B68FA681A603B689A687B68DA62BE
:10283C003B681A687B689A627B680D4A934203D1A5
:10284C003B681A697B681A637B6801225A617B6852
:10285C001B6903F00103002B05D07B681B6923F077
:10286C0001027B681A6100BF1437BD4680BC7047FB
:10287C00002C01400004004080B487B000AFF86029
:10288C00B9607A60FB681B6A7B61FB681B6A23F08A
:10289C000102FB681A62FB689B693B613B6923F090
:1028AC00F0033B617B681B013A6913433B617B6915
:1028BC0023F00A037B617A69BB6813437B61FB6875
:1028CC003A699A61FB687A691A6200BF1C37BD4687
:1028DC0080BC704780B487B000AFF860B9607A6094
:1028EC00FB681B6A7B61FB681B6A23F01002FB68A8
:1028FC001A62FB689B693B613B6923F470433B6143
:10290C007B681B033A6913433B617B6923F0A0038B
:10291C007B61BB681B017A6913437B61FB683A6975
:10292C009A61FB687A691A6200BF1C37BD4680BC8D
:10293C00704780B485B000AF786039607B689B6865
:10294C00FB60FB6823F07003FB603A68FB68134381
:10295C0043F00703FB607B68FA689A6000BF14378A
:10296C00BD4680BC704780B487B000AFF860B960DA
:10297C007A603B60FB689B687B617B6923F47F43D7
:10298C007B613B681A027B681A43BB6813437A6904
:10299C0013437B61FB687A699A6000BF1C37BD46A4
:1029AC0080BC704780B485B000AF786039607B68BC
:1029BC0093F83C30012B01D1022341E07B680122CA
:1029CC0083F83C207B68022283F83D207B681B68DF
:1029DC005B68FB607B681B689B68BB60FB6823F0D3
:1029EC007003FB603B681B68FA681343FB607B68F1
:1029FC001B68FA685A607B681B68144A934209D0BA
:102A0C007B681B68B3F1804F04D07B681B68104A4D
:102A1C0093420CD1BB6823F08003BB603B685B68BE
:102A2C00BA681343BB607B681B68BA689A607B68A2
:102A3C00012283F83D207B68002283F83C20002390
:102A4C0018461437BD4680BC704700BF002C0140AF
:102A5C000004004080B483B000AF786000BF0C3736
:102A6C00BD4680BC704780B483B000AF786000BFB7
:102A7C000C37BD4680BC704770B500260C4D0D4C14
:102A8C00641BA410A64209D100F022F800260A4DBE
:102A9C000A4C641BA410A64205D170BD55F8043B2A
:102AAC0098470136EEE755F8043B98470136F2E7B4
:102ABC00182B0008182B0008182B00081C2B0008DA
:102ACC0003460244934200D1704703F8011BF9E717
:102ADC00F8B500BFF8BC08BC9E467047F8B500BFFF
:082AEC00F8BC08BC9E467047CF
:102AF40000000000000000000102030406070809AA
:102B040002030405060708090A0B0C0D0E0F10102A
:042B140001020000BA
:042B1800310100087F
:042B1C000D0100089F
:102B2000000102030405060708090A00320000003C
:102B300000080140020000000008014004000000FD
:102B400000080140080000000008014010000000DB
:102B50000008014020000000000801404000000083
:102B60000008014080000000000801400002000051
:102B700000080140000400000008014000080000B7
:102B800000080140001000000400000005000200E1
:102B9000030000000500020003000000000C0140DB
:102BA00008000000000C014010000000000C014073
:102BB00020000000000C014040000000000C01401B
:102BC00080000000000C0140000100000A0000002D
:0C2BD00000127A0010000000010000005C
:040000050800146576
:00000001FF
